:020000040800F2
:1000000088250320750300082B190008DB18000859
:100010002919000895090008851F00080000000044
:10002000000000000000000000000000B90200080D
:10003000210A0008000000000D030008CD19000887
:100040008F0300088F0300088F0300088F03000848
:100050008F0300088F0300088F0300088F03000838
:100060008F0300088F0300088F0300088F03000828
:100070008F0300088F0300088F0300088F03000818
:100080008F0300088F0300088F0300088F03000808
:100090008F0300088F0300088F0300088F030008F8
:1000A0008F0300088F0300088F0300088F030008E8
:1000B0008F0300088F0300088F0300088F030008D8
:1000C0008F0300088F0300088F0300088F030008C8
:1000D0008F030008291F00088F0300088F03000802
:1000E0008F0300088F0300088F0300088F030008A8
:1000F0008F0300088F0300088F0300088F03000898
:100100008F0300088F0300088F0300088F03000887
:100110008F0300088F0300088F0300088F03000877
:100120008F0300088F0300088F0300088F03000867
:100130008F0300088F0300088F0300088F03000857
:100140008F0300088F0300088F0300088F03000847
:100150008F0300088F0300088F0300088F03000837
:100160008F0300088F0300088F0300088F03000827
:100170008F0300088F0300088F03000800000000B1
:100180008F0300088F0300088F0300088F03000807
:100190008F0300088F0300088F0300088F030008F7
:1001A0008F0300088F0300088F0300088F030008E7
:1001B0008F0300088F0300088F0300088F030008D7
:1001C0008F0300088F030008000000008F03000861
:1001D0008F0300088F0300088F0300088F030008B7
:1001E0008F0300088F0300088F0300088F030008A7
:1001F0008F0300088F03000800F002F800F04CF8AD
:100200000AA090E8000C82448344AAF10107DA4571
:1002100001D100F041F8AFF2090EBAE80F0013F077
:10022000010F18BFFB1A43F001031847F83C000008
:10023000183D0000103A24BF78C878C1FAD8520798
:1002400024BF30C830C144BF04680C607047000050
:100250000023002400250026103A28BF78C1FBD8CF
:10026000520728BF30C148BF0B60704703681B0AA4
:1002700028BF41F08001642900F0D480E42900F017
:100280000D81732900F0BE82002070471FB503F076
:1002900037FE1FBD10B510BD00F049FB1146FFF73A
:1002A000F5FF01F037FF00F067FB03B4FFF7F2FF43
:1002B00003BC01F068FE00002B4B19680868B0E829
:1002C000F04F80F30988BFF36F8F4FF0000080F389
:1002D000118870470000000006480068006880F33D
:1002E000088862B661B6BFF34F8FBFF36F8F00DF30
:1002F00000BF00BF08ED00E0DFF80C00016841F42A
:1003000070010160704700BF88ED00E0EFF30980E5
:10031000BFF36F8F144B1A681EF0100F08BF20ED4B
:10032000108A20E9F04F106008B44FF0500072B608
:1003300080F31188BFF34F8FBFF36F8F62B602F067
:10034000E9FE4FF0000080F3118808BC19680868C6
:10035000B0E8F04F1EF0100F08BFB0EC108A80F329
:100360000988BFF36F8F704730000220EFF30580DC
:10037000704700000948804709480047FEE7FEE74C
:10038000FEE7FEE7FEE7FEE7FEE7FEE7FEE7FEE745
:1003900004480549054A064B70470000E519000866
:1003A000F90100088805032088250320881503200B
:1003B00088150320704700000FB4044910B503AA44
:1003C000029800F023FA10BC5DF814FB280002200C
:1003D00070B50C460546012A05D02878800600D560
:1003E000EA69002302E0012305E05B1C934202D28C
:1003F000E05C0028F9D1A869E618C01AA861286A4B
:10040000184428622846AFF3008004E0D5E90121B2
:1004100014F8010B9047B442F8D32846AFF300809C
:1004200070BD00002DE9F0410646002410687529D2
:10043000314616A510D0AFF30080002802DA404202
:1004400013A507E031688A0701D512A502E0490724
:1004500004D511A5012401E0AFF3008000210A2298
:1004600006F1240709E0B0FBF2FCB0FBF2F302FB5B
:100470001C00303078541846491C0028F3D123461C
:100480002A463046BDE8F04100F038B900000000CF
:100490002D0000002B000000200000002DE9F0419D
:1004A0008046D21D22F007020025D2E90002F5297C
:1004B00015A614D0011E72F1000106DA0023D0EB5C
:1004C000030063EB020211A608E0D8F800108B07C6
:1004D00001D50FA602E0490701D50EA60125114658
:1004E000002408F1240704E000F0C3F830323A5544
:1004F000641C50EA0102F7D12B46324621464046A1
:10050000BDE8F04100F0FAB8000000002D00000046
:100510002B000000200000002DE9F0410F460546A9
:10052000002028622846E968884770B3252805D04E
:10053000D5E901219047286A401CF2E7E96828467E
:10054000002688476C2804460AD0682C08D04C2C1A
:1005500035D06A2C31D0742C31D07A2C2FD016E0C3
:10056000E968064628468847B042044608D16C2E02
:1005700023D04FF480662846E9688847044606E0A1
:100580006C2E03D04FF4807601E01EE04026E4B1EB
:10059000A4F14100192802D8203446F400663A46F6
:1005A000214628462E60FFF761FE60B1012808D081
:1005B000FF1D27F007070837B4E78026DBE7002692
:1005C000D9E73F1DAEE72046B2E7286ABDE8F081D3
:1005D000032A40F2308010F0030C00F0158011F86F
:1005E000013BBCF1020F624498BF11F801CB00F847
:1005F000013B38BF11F8013BA2F1040298BF00F89B
:1006000001CB38BF00F8013B11F0030300F010816B
:10061000083AC0F0088051F8043B083A51F804CB7E
:10062000A0E80810F5E7121D5CBF51F8043B40F844
:10063000043BAFF30080D20724BF11F8013B11F84F
:1006400001CB48BF11F8012B24BF00F8013B00F893
:1006500001CB48BF00F8012B704702F0FF0343EACB
:10066000032242EA024200F017B970477047704710
:10067000704730B5B0F10A024FEA900E71F10003F5
:100680004EEA817EB0EB0E0061EB91014FEA101E45
:100690004EEA017E10EB0E0041EB11114FEA102ED5
:1006A0004EEA016E10EB0E0041EB11214FEA104EA5
:1006B0004EEA014E10EB0E0041EB1141401841F1A2
:1006C00000014FEAD00040EA41704FEAD10110EB3F
:1006D00080054FEA810444EA907444EB01046D19EB
:1006E00044EB0404521BA3414FF0000348BF0A32FD
:1006F00000D530BD401C41F1000130BD2DE9F0476F
:100700000D4699469246044600F124080168880681
:1007100004D5E06921F01001216000E00120A84229
:1007200001DD471B00E00027A1697A1902EB0900EF
:10073000081AA0612078C00602D42046AFF30080DA
:10074000002608E0D4E901211AF806009047206A43
:10075000401C761C20624E45F4DB2078C0060AD58A
:100760002046AFF3008006E0D4E901213020904715
:10077000206A401C2062381EA7F10107F4DC07E064
:10078000D4E9012118F805009047206A401C206236
:10079000281EA5F10105F3DC2046AFF30080207888
:1007A000000602D50220BDE8F0870120FBE700002B
:1007B00001694A1C02610878704700B58FB0CDE925
:1007C00001310021059105497944CDE90310114615
:1007D0006846FFF7A1FE0FB000BD0000E5FFFFFF78
:1007E00010B5436913B1AFF3008001E0FFF7F0FDEE
:1007F000012010BD127800F124010A7000224A7015
:100800000122EDE711684FF0FF32E9E7074B70B5C1
:100810000D467B44FFF7D1FF0446284600F05CF804
:1008200010B14FF0FF3070BD204670BD6B18000056
:1008300010B5203AC0F00B80B1E81850203AA0E87B
:100840001850B1E81850A0E81850BFF4F5AF5FEAAF
:10085000027C24BFB1E81850A0E8185044BF18C962
:1008600018C0BDE810405FEA827C24BF51F8043B09
:1008700040F8043B08BF7047D20728BF31F8023B5D
:1008800048BF11F8012B28BF20F8023B48BF00F8F1
:10089000012B70474FF000020429C0F0128010F0C5
:1008A000030C00F01F80CCF1040CBCF1020F18BF48
:1008B00000F8012BA8BF20F8022BA1EB0C0100F0DF
:1008C00011B85FEAC17C24BF00F8012B00F8012BAE
:1008D00048BF00F8012B7047007B00F08000704794
:1008E0004FF0000200B5134694469646203922BFC9
:1008F000A0E80C50A0E80C50B1F12001BFF4F7AF14
:10090000090728BFA0E80C5048BF0CC05DF804EBF5
:10091000890028BF40F8042B08BF704748BF20F863
:10092000022B11F0804F18BF00F8012B704775465D
:1009300000F02CF8AE4605006946534620F007004B
:10094000854618B020B5FFF723FDBDE820404FF0E5
:1009500000064FF000074FF000084FF0000B21F0A9
:100960000701AC46ACE8C009ACE8C009ACE8C00976
:10097000ACE8C0098D46704710B50446AFF300805F
:100980002046BDE81040FFF790BC000000487047CB
:1009900028050320FEE7000070B4BFF34F8FBFF3BC
:1009A0006F8F1A4900200860194D296841F4003101
:1009B0002960BFF34F8FBFF36F8F16490860BFF3F5
:1009C0004F8F081F006843F6FF76134AC0F34E3C72
:1009D000C0F3C90406EA4C11204641EA8073136053
:1009E000401EFAD2BCF1010CF4D2BFF34F8F28683D
:1009F00040F480302860BFF34F8FBFF36F8F0748FC
:100A0000016841F00401016070BC704750EF00E0E4
:100A100014ED00E084ED00E060EF00E09CEF00E00A
:100A20007047000010B503F009F84FF47A734FF0E7
:100A3000E02CA0FB03210948DCF818C00068B0FBDB
:100A4000F3F3A3EB0C03DFF818C0B0FBFCF0B3FB2F
:100A5000F0F0101841F1000110BD00001800022054
:100A600040420F0090F83510022903D080214165E3
:100A700001207047052180F835100068016821F0D9
:100A800001010160002070472DE9F84FDFF8309236
:100A90000022DFF828820F2709F1040A4FF0010E27
:100AA0000B680EFA02F52B40AB4240F00181D1F801
:100AB00004C0BCF1020F18BFBCF1120F15D14FEAF0
:100AC000D20C00EB8C0CDCF820604FEA42744FEA49
:100AD000D46407FA04FB26EA0B06D1F810B00BFA2F
:100AE00004F444EA0604CCF8204006684FEA420CBD
:100AF00091F804B04FF003040BF0030B04FA0CF46C
:100B00000BFA0CFB26EA04064BEA060606604E6862
:100B1000012E18BF022E03D0112E18BF122E14D191
:100B20008668D1F80CB026EA04060BFA0CFB4BEAF7
:100B300006068660466826EA05050E79C6F30016A5
:100B400006FA02F646EA05054560C56825EA04048A
:100B50008D6805FA0CFC4CEA040CC0F80CC0D1F806
:100B600004C01CF0805F7CD0D8F800C04CF4804CEE
:100B7000C8F800C0D8F800C00CF4804CCDF800C014
:100B800022F0030C0CF1804505F59835D5F808C81E
:100B90004FEA82744FEA147407FA04F62CEA060648
:100BA000A0F1804CBCF5003C48D0A0F1804CBCF5D5
:100BB000013C08BF4FF0010C40D0A0F1804CBCF5C7
:100BC000023C08BF4FF0020C38D0A0F1804CBCF5BD
:100BD000033C08BF4FF0030C30D0A0F1804CBCF5B3
:100BE000043C08BF4FF0040C28D0A0F1804CBCF5A9
:100BF000053C08BF4FF0050C20D0A0F1804CBCF59F
:100C0000063C08BF4FF0060C18D0A0F1804CBCF594
:100C1000073C08BF4FF0070C10D0A0F1804CBCF58A
:100C2000083C08BF4FF0080C08D0A0F1804CBCF580
:100C3000093C0CBF4FF0090C4FF00A0C0CFA04FCF5
:100C40004CEA060CC5F808C8D9F800C04C682CEA74
:100C5000030C14F4803F18BF4CEA030CC9F800C021
:100C600000E025E0DAF800C04C682CEA030C14F42C
:100C7000003F18BF4CEA030CCAF800C0114CD4F86E
:100C800000C04D682CEA030C15F4801F18BF4CEA15
:100C9000030CC4F800C00C4CD4F800C04D682CEA1A
:100CA000030C15F4001F18BF4CEA030CC4F800C075
:100CB000521C102AFFF4F4AEBDE8F88F443802400D
:100CC000003C0140083C01400C3C0140426951405D
:100CD00041617047002A08BF090481617047000024
:100CE00001480068704700002C000220024801689B
:100CF000491C0160704700002C000220074810B515
:100D0000016841F400710160032000F05DF80F20DC
:100D100000F006F800F018F8002010BD003C02407A
:100D200010B5044607484FF47A720068B0FBF2F041
:100D300000F0C6FB00222146501E00F013F80020F0
:100D400010BD0000180002207047012200F01F01B2
:100D500002FA01F14009800000F1E020C0F8001122
:100D600070470000174B4DF8044D1B68C3F3022376
:100D7000C3F1070CBCF1040F88BF4FF0040C1C1D1D
:100D8000072C34BF0023DB1E012404FA0CFCACF159
:100D9000010C0CEA0101994004FA03F35B1E1A40AE
:100DA000114300284FEA0111B8BF00F00F0000F115
:100DB000E020B4BF80F8141D80F800145DF8044BE7
:100DC000704700000CED00E0074A00F007001168D2
:100DD0004FF6FF03194041EA002040F0FD7040F05B
:100DE00080601060704700000CED00E01C4838B5D2
:100DF000016841F08051016000681A4C00F0805099
:100E00000090206840F480302060FFF769FF0546BD
:100E1000606810F4803F09D1FFF762FF401BB0F516
:100E20007A7F14D8606810F4803FF5D0206840F4D1
:100E300000302060FFF754FF0546606810F4003F63
:100E40000BD1FFF74DFF401BB0F57A7F01D903208E
:100E500038BD606810F4003FF3D0002038BD0000BA
:100E600040380240007000402DE9F047DFF868810B
:100E700004460D46D8F8000000F00F00A8420CD23E
:100E8000D8F8000020F00F002843C8F80000D8F878
:100E9000000000F00F00A84270D120784F4F10F0F2
:100EA000020F05D03868A16820F0F00008433860D0
:100EB000207810F0010F4ED060684949012820D0F9
:100EC0000968022822D011F0020F57D0396821F0AA
:100ED000030108433860FFF703FF0646606841F2EC
:100EE0008839012816D00228386800F00C0021D07B
:100EF000F8B1FFF7F5FE801B484528D90320BDE86F
:100F0000F087096811F4003FE0D137E011F0007F6D
:100F1000DCD133E0386800F00C0004281BD0FFF768
:100F2000DFFE801B4845E9D8386800F00C00042833
:100F3000F5D110E008280ED0FFF7D2FE801B4845FF
:100F4000DCD8386800F00C000828F5D103E03868D8
:100F500010F00C0FCDD1D8F8000000F00F00A8421F
:100F60000FD9D8F8000020F00F002843C8F800007F
:100F7000D8F8000000F00F00A84202D00120BDE820
:100F8000F087207810F0040F05D03868E16820F46D
:100F9000E05008433860207810F0080F06D0386819
:100FA000216920F4604040EAC100386000F04EF84A
:100FB0003968F02292FAA2F201F0F001B2FA82F25C
:100FC000D140084A515CC840074908600F20FFF72C
:100FD000A7FE0020BDE8F087003C02400838024030
:100FE000003802400A3F000818000220084809495A
:100FF000006809684FF4E05292FAA2F201F4E0515D
:10100000B2FA82F2D140044A515CC84070470000F5
:1010100018000220083802401A3F00080848094911
:10102000006809684FF4604292FAA2F201F460414C
:10103000B2FA82F2D140044A515CC84070470000C5
:1010400018000220083802401A3F000821480068B2
:1010500010F00C01204808BF7047DFF880C0042959
:1010600004BF60467047082918BF70474DF8044D0B
:101070001B4A1168136801F03F0113F4800F47F613
:10108000C0730BD0BCFBF1F01168194093FAA3F3C5
:10109000B3FA83F3D94000FB01F00AE0B0FBF1F0B2
:1010A0001168194093FAA3F3B3FA83F3D94000FB14
:1010B00001F011684FF440325DF8044B92FAA2F24D
:1010C00001F44031B2FA82F2D140491C4900B0FB30
:1010D000F1F07047083802400024F40040787D01A8
:1010E000043802402DE9F84FDFF8A8830446007861
:1010F000A8F1040710F0010FA7F104055AD0D8F8A1
:10110000000000F00C00042809D0D8F8000000F01E
:101110000C0008280CD1386810F4800F08D028681B
:1011200010F4003F46D06068002800F0AF8141E035
:101130006068B0F5803F04BF286840F480300AD072
:1011400010B1B0F5A02F11D0286820F480302860AD
:10115000286820F4802028606068D0B1FFF7C0FDC7
:101160000646286810F4003F08D023E0286840F4C1
:1011700080202860286840F48030ECE7FFF7B0FD5D
:10118000801B642800F22581286810F4003FF5D008
:1011900010E0FFF7A5FD0646286810F4003F09D0CF
:1011A000FFF79EFD801B642800F21381286810F46D
:1011B000003FF5D1207810F0020F50D0D8F8000091
:1011C0004FF0F80910F00C0F18D0D8F8000000F01C
:1011D0000C00082804BF386810F4800F0ED0E068B7
:1011E0000028286828D040F001002860FFF778FD2B
:1011F0000646286810F0020F09D011E0286810F0A8
:10120000020F1CBFE06801280AD000F03FB9FFF7C9
:1012100067FD801B02287DD8286810F0020FF6D0E9
:10122000286899FAA9F22169B2FA82F220F0F8004E
:1012300091400843286012E020F001002860FFF789
:101240004FFD0646286810F0020F08D0FFF748FD52
:10125000801B02285ED8286810F0020FF6D1207893
:1012600010F0080F33D0DFF8309260690028D9F809
:10127000000016D040F00100C9F80000FFF730FD73
:101280000646D9F8000010F0020F20D1FFF728FD24
:10129000801B02283ED8D9F8000010F0020FF5D0CC
:1012A00015E020F00100C9F80000FFF719FD06461F
:1012B000D9F8000010F0020F09D0FFF711FD801BD4
:1012C000022827D8D9F8000010F0020FF5D12078B5
:1012D00010F0040F63D07148016841F08051016043
:1012E00000686F4E00F080500090306840F48070CD
:1012F0003060FFF7F5FC8146306810F4807F0BD139
:10130000FFF7EEFCA0EB0900642862D8306810F407
:10131000807F00E05DE0F3D0A068624E012804BF4A
:10132000306840F0010009D008B1052813D03068BA
:1013300020F001003060306820F004003060A068C8
:1013400041F2883AD0B1FFF7CBFC8146306810F00B
:10135000020F08D023E0306840F0040030603068AD
:1013600040F00100EAE7FFF7BBFCA0EB09005045A5
:101370002FD8306810F0020FF5D010E0FFF7B0FC66
:101380008146306810F0020F09D0FFF7A9FCA0EBEE
:10139000090050451DD8306810F0020FF5D1A06942
:1013A000E8B3D8F8001001F00C0108296ED002282B
:1013B000286820F0807028600ED0FFF791FC04466A
:1013C000286810F0007F5ED0FFF78AFC001B02281F
:1013D00055D90320BDE8F88FFFF782FC0646286840
:1013E00010F0007F08D0FFF77BFC801B0228F0D8AC
:1013F000286810F0007FF6D1D4E9070147F6C072E3
:101400004FF0FF3392FAA2F20843616AB2FA82F215
:101410009140A26A03EB52024FF4403300E032E005
:1014200093FAA3F3B3FA83F39A4011434FF0706237
:101430000843E16A92FAA2F2B2FA82F291404FF0C6
:10144000E0420843216B92FAA2F2B2FA82F2914092
:1014500008433860286840F080702860FFF740FC3F
:101460000446286810F0007F0DD1FFF739FC001BFF
:101470000228AED8286810F0007FF6D003E0286874
:1014800010F0007FA0D10020BDE8F88F0120BDE85A
:10149000F88F00000838024074380240403802409B
:1014A00000700040703802404FF0E02104280869C5
:1014B0000CBF40F0040020F00400086170470000F9
:1014C000401EB0F1807F24BF012070474FF0E02123
:1014D0004861F020044A82F8140D0020886107203A
:1014E00008610020704700000FE000E0704790F8AE
:1014F000691090F86A0008437047000070B50168F1
:101500000446C8690A688B6810F00F0F4FF0200579
:1015100051D040F2011C13EA0C0F7DD010F0010FE6
:1015200018BF12F4807F07D04FF0010CC1F820C023
:10153000E16E41F00101E16610F0020F18BF13F0F7
:10154000010F08D0D4F800C00221CCF82010E16EC1
:1015500041F00401E16610F0040F18BF13F0010F11
:1015600008D0D4F800C00421CCF82010E16E41F07E
:101570000201E16610F0080F0CD002F0200103F028
:101580000103194306D0236808211962E16E41F076
:101590000801E166E16E002908BF70BD10F0200F60
:1015A0001EBF12F0200F204600F0EFFAE06E10F0A0
:1015B000080F10D10AE010F0200F18BF12F0200F12
:1015C00039D02046BDE8704000F0DFBA206880685E
:1015D00010F0400F29D02068016821F4907101605B
:1015E0002068816821F00101816084F86A502068D8
:1015F000816811F0400F14D0816821F040018160B2
:10160000606E70B12F490165606EFFF72BFA0028FC
:1016100008BF70BD606E00E00DE0016DBDE8704078
:1016200008472046FFF762FF70BD2046FFF75EFFC8
:101630000020E06670BD10F0800F18BF12F0800F20
:101640002FD094F86900212818BF70BDB4F852005B
:10165000A0B1A068B0F5805F04BF20690028E06CED
:1016600016D000F10101E164216800788862B4F8C5
:101670005200A0F10100A4F8520070BD086820F0EB
:10168000800008602068016841F04001016070BD81
:101690000088C0F308008862E06C00F10200E0649A
:1016A000E5E710F0400F14BF12F0400F70BD204668
:1016B0000A6822F040020A6084F8695000F00CF9D0
:1016C00070BD0000771B0008002804BF0120704790
:1016D00010B5044690F8690028B9002084F8680025
:1016E000204600F029F8242084F869002068016869
:1016F00021F001010160204600F088FA012808BFAE
:1017000010BD606A00281CBF204600F097F92068D1
:10171000416821F4904141602068816821F02A01EC
:1017200081602068016841F0010101602046BDE848
:10173000104000F0F0B9000010B5006886B0A0F1CC
:101740008041B1F588311CBF06B010BD1848016852
:1017500041F001010160006800F0010005901548AA
:10176000016841F01001016000680121124C00F095
:10177000100005904FF4007000900220CDE90101A7
:1017800003900720694604902046FFF77DF9211554
:10179000204600916946FFF777F92520FFF7D5FA33
:1017A000032225201146FFF7DDFA06B010BD000028
:1017B00030380240443802400000024090F86A305D
:1017C000202B49D1002912BF002A0120704790F830
:1017D0006830012B40D0012380F868304165A0F8C3
:1017E0005820A0F85A20FF228168B1F5805F05D00B
:1017F0007F2351B1B1F1805F0CD012E00169002963
:1018000008BF40F2FF1102D109E0016909BBA0F84D
:101810005C2006E00169002918BF3F2119D0A0F81B
:101820005C100021C166222280F86A2080F86810CE
:1018300001680A6842F480720A6001688A6842F0AE
:1018400001028A600068016841F020010160002007
:101850007047A0F85C30E4E7022070474DF8044D73
:101860000068A0F18041B1F588311CBF5DF8044BE0
:101870007047174A508810F4004F1CBF5DF8044BA6
:10188000704710F4804F4FF000031149097808D0D9
:101890000A2908BF40F4004016D053805DF8044B7D
:1018A00070470D2908BF40F480400DD0094CC0F3AB
:1018B0000D0C401C80B2C72804F80C1050809CBF4F
:1018C0005DF8044B7047E8E750805DF8044B7047C3
:1018D00024000220A40002207047FEE7104810B543
:1018E00086B0016841F002010160006801210D4CE1
:1018F00000F0020005900320CDE90001CDE90210BF
:1019000069462046FFF7C0F8012220461146FFF73E
:10191000E1F9012220460221FFF7DCF906B010BDF3
:101920003038024000040240FEE77047DFF894C000
:1019300010B594B0DCF8004044F08054CCF800407E
:10194000DCF800C00CF0805CCDF848C0DFF878C04F
:10195000DCF8004044F44044CCF80040DCF800C01F
:1019600002240CF4404CCDF848C04FF0010CCDF8E7
:1019700000C04FF4803CCDF804C04FF4800CCDE99A
:101980000810CDE90A23CDE9064C6846FFF7AAFB0B
:1019900000B1FEE7FFF72AFA00B1FEE70F20CDE91C
:1019A0000D0400200F904FF4A05010904FF4805081
:1019B000119007210DA8FFF757FA002804BF14B0B3
:1019C00010BDFEE7403802400070004010B502F044
:1019D00027F8012818BF01F053FCBDE81040FFF7BD
:1019E00085B900000F48016841F4700101600E489C
:1019F000016841F0010101600C4A00211160026898
:101A000022F4102222F080720260031D084A1A603C
:101A1000026822F4802202600648016058060649E6
:101A20000860704788ED00E0003802400838024046
:101A3000103000240C38024008ED00E090F824102B
:101A400011F0010F06D001684A68836A22F400325F
:101A50001A434A6090F8241011F0020F06D0016872
:101A60004A68C36A22F480321A434A6090F824100C
:101A700011F0040F06D001684A68036B22F480223B
:101A80001A434A6090F8241011F0080F06D001683C
:101A90004A68436B22F400421A434A6090F82410CB
:101AA00011F0100F06D001688A68836B22F480520F
:101AB0001A438A6090F8241011F0200F06D00168B4
:101AC0008A68C36B22F400521A438A6090F824108B
:101AD00011F0400F11D001684A68036C22F48012A3
:101AE0001A434A60016CB1F5801F06D101684A684B
:101AF000436C22F4C0021A434A6090F8241011F09B
:101B0000800F08BF704701684A68806C22F4002289
:101B1000104348607047F8B500260446C666FFF7D4
:101B2000DFF80746206800686FF07E4510F0080F68
:101B300008D000223B464FF400112046009500F0EB
:101B4000B9F968B92068006810F0040F0AD00022C3
:101B50003B464FF480012046009500F0ABF908B1F8
:101B60000320F8BD202084F8690084F86A00002072
:101B700084F86860F8BD10B5806B0021A0F85A1099
:101B8000A0F85210FFF7B2FC10BD10B5B0F85C2001
:101B900090F86A300168222B05D0886940F008006F
:101BA0008861022010BD8368B3F5805F04BF0369BC
:101BB000002B23D0496A01EA0202416D01F10103C1
:101BC00043650A70B0F85A10A1F101010904090C2B
:101BD000A0F85A101CBF002010BD01680A6822F44A
:101BE00090720A6001688A6822F001028A602021EE
:101BF00080F86A10FFF732FE002010BD436D496A7D
:101C000011401980416D891C4165DBE770B50446C0
:101C100080681021002223691546D4F81CC018439F
:101C2000636943EA0C0303432068D0F800C09D4E6B
:101C30000CEA060C4CEA0303036020684368D4F8FE
:101C40000CC023F4405343EA0C034360236AA069A9
:101C500003432068D0F808C02CF4306C4CEA03032E
:101C600083602068904BA0F1804CBCF5883C23D069
:101C7000A0F1804CBCF5884C29D0A0F1804CBCF57B
:101C8000904C2FD0A0F1804CBCF5984C35D0A0F1F1
:101C9000804CBCF5A04C3BD0A0F1804CBCF58A3CFC
:101CA00044D0A0F1804CBCF5F04C4FD0A0F1804C5A
:101CB000BCF5F84C58D06CE01B6813F0030343D01C
:101CC000012B63D0022B5FD0032B61D061E01B6836
:101CD00013F00C0356D0042B58D0082B54D00C2BE7
:101CE00056D056E01B6813F030034BD0102B4DD06C
:101CF000202B49D0302B4BD04BE01B6813F0C00396
:101D000040D0402B42D0802B3ED0C02B40D040E072
:101D10001B6813F4407335D0B3F5807F36D0B3F52C
:101D2000007F31D0B3F5407F32D032E01B6813F42E
:101D3000406309D0B3F5806F28D0B3F5006F23D08E
:101D4000B3F5406F24D024E0012122E01B6813F496
:101D5000405317D0B3F5805F18D0B3F5005F13D0B0
:101D6000B3F5405F14D014E01B6813F4404309D06E
:101D7000B3F5804F0AD0B3F5004F05D0B3F5404F0F
:101D800006D006E0002104E0022102E0042100E088
:101D90000821E369B3F5004F08D009297FD2DFE8B5
:101DA00001F046525E7E677E7E7E7400092935D240
:101DB000DFE801F0050F1934213434342B00FFF72C
:101DC00015F94100606801EB5001B1FBF0F082B2FF
:101DD00025E0FFF723F94100606801EB5001B1FBFA
:101DE000F0F082B21BE06068304901EB5001B1FBBA
:101DF000F0F082B213E0FFF729F94100606801EBCF
:101E00005001B1FBF0F082B209E060684FF480311C
:101E100001EB5001B1FBF0F082B200E0012522F0AD
:101E20000F00C2F3420108432168C86038E0FFF7A1
:101E3000DDF80146606801EB5001B1FBF0F021686C
:101E400080B2C8602CE0FFF7E9F80146606801EB5A
:101E50005001B1FBF0F0216880B2C86020E06168F9
:101E6000134A02EB5102B2FBF1F189B2C16017E0F3
:101E7000FFF7ECF80146606801EB5001B1FBF0F0B0
:101E8000216880B2C8600BE009E061684FF400424D
:101E900002EB5102B2FBF1F189B2C16000E0012511
:101EA000284670BDF369FFEF903802400048E80112
:101EB0000024F4002DE9F041044600681E46174650
:101EC000069D8846C06931EA00000CBF0120002051
:101ED000B84226D1B5F1FF3F1AD025B1FEF700FF79
:101EE000801BA84214D32068016821F4D0710160DE
:101EF0002068816821F001018160202084F8690058
:101F000084F86A00002084F868000320BDE8F081AE
:101F10002068C06938EA00000CBF01200020B842E8
:101F2000D8D00020BDE8F08170B5134D00241348CF
:101F3000FFF7E4FA1148FFF7DAFA202807D0641C0B
:101F4000AC4204D80D48FFF7D2FA2028F7D10C494B
:101F500000240A480122FFF731FC002808BF70BDA9
:101F6000641CAC4288BF70BD012205490348FFF7DD
:101F700025FC0028F4D170BDFFFF01006C01022098
:101F800024000220FEE7704710B504460420FFF746
:101F90008BFA0A4801224FF47A7114FB01F1446074
:101FA00002804FF0E020026942F0020202614161CA
:101FB000016941F00101016110BD00001C00022017
:101FC00070B5050005D115A140F2FB4218A0FEF73F
:101FD000F3F91B4E3068854204BF002070BD00F04D
:101FE00089FD6C6900F0C6FD706B84421CBFB06B4C
:101FF000844202D14FF0020070BD1248844205D1E4
:10200000A86A002808BF0320F4D170BD0E4884429E
:1020100016BF002C0420012070BD00002E2E5C464F
:1020200072656552544F535C7461736B732E630019
:102030004572726F723A25732C25640D0A000000F8
:1020400030000220EC040220D8040220000000002E
:102050002DED028B064C9FED088B4FF47A7094EDBA
:10206000040B30EE080B84ED040B00F08BFEF4E75C
:10207000000002200000000000000040E17A843FE0
:102080000349CA6912F0400FFBD0C2B28A6270479E
:102090000010014082B00C4F4FF0E026022138467C
:1020A000FEF714FEFEF7BEFC04460D4601F0C6FC2A
:1020B000CDE90045B269014604A0FEF77DF94FF471
:1020C000FA7000F05FFEE9E700040240B5B1C7B066
:1020D000CFB5CDB3CAB1BCE4CEAA3A256409256414
:1020E00009256C6C640D0A00094C00220121204670
:1020F000FEF7F0FDC82000F045FE01222046114603
:10210000FEF7E8FD4FF4487000F03CFEEDE70000FC
:10211000000402404DF804ED83B0FEF73DFCFEF7ED
:10212000EDFD0923022219214FF4D870FFF7FEFBC1
:10213000D820FFF729FF4FF4E13000F075FCFFF7DE
:10214000CDFB0849012000238022CDE90001094888
:1021500005A101F0A1FB00F083FF03B000205DF8B2
:1021600004FB00000000022073746172745F7461EC
:10217000736B0000912900082DE9F041194E0F46BC
:102180000446F5683068001D00F06AFC48B9306804
:10219000012190F82C0001FA00F0316921EA0000D9
:1021A0003061B4F1FF3F07D137B13068BDE8F0418D
:1021B000011D0D4800F091BC30682C44AC424460D5
:1021C000306800F1040104D2B06BBDE8F04100F0CA
:1021D00067BC706B00F064FCB06AA04288BFB46258
:1021E000BDE8F08130000220EC0402202DE9F0412E
:1021F000856B002716460446026C82B1C6B1E068C2
:10220000FEF7E6F9E168206C091AE1602268914264
:1022100002D26168081AE060022E19D115E0206828
:10222000B0B9606801F096FC0746002060600FE0DE
:10223000A068FEF7CDF9216CA0680844A060616831
:10224000884224BF2068A06002E0002D18BF6D1EE8
:10225000681CA0633846BDE8F08100001B4E4FF0BB
:1022600080581B4DDFF86C90A6F52F77686810B387
:10227000286B401C2863306800280CBF0124002410
:1022800001F00EFDA4B900F035FCF068C468201D13
:1022900000F0E6FBA868401EA8606868401E686001
:1022A00000F068FC206B00F09BFC204600F098FCDE
:1022B00068680028DCD138680128D7D9C9F80080BF
:1022C000BFF34F8FBFF36F8FD0E70000D804022019
:1022D0003000022004ED00E016494DF8044D0A6874
:1022E000824238BF1146FAD34B6803EB010C844598
:1022F00003D14068184448600846436803EB000C6B
:10230000944518BF02600ED1DFF82CC0DCF800C085
:10231000624508BFC0F800C005D052681A44426048
:102320000A6812680260814218BF08605DF8044BB9
:10233000704700009C0002208C00022010B5DFF8DE
:1023400038C0002441609142006108D8D11A8269E6
:1023500091423CBF011DDCF8100004D208E093421A
:1023600003D98B4201D8012404E0011DDCF80C00E4
:1023700000F096FB204610BD6C0002202DE9F341D1
:10238000009800260F46846C2CB918A140F6CE1296
:102390001BA0FEF711F8A06BE16B884205D313A1D7
:1023A00040F6CF1216A0FEF707F8A06BE16B88424B
:1023B0000CD294F945503A4669462046FFF716FF7D
:1023C0000646681C18BF84F8450003D002B03046AA
:1023D000BDE8F081606A0028F8D004F1240001F023
:1023E00015FC002818BF0126F0E700002E2E5C46E1
:1023F00072656552544F535C71756575652E630047
:102400004572726F723A25732C25640D0A00000024
:102410002DE9F843074601F011FB224E80464FF0AC
:102420000009B068804528BFC7F8009035D2F06831
:10243000006800282BD0F068C068C4680568201DBB
:1024400000F00EFB616A20468847E06901281AD136
:10245000A0692844A84206D92461211D6060F06863
:1024600000F01EFB0FE000232A4619462046CDF857
:10247000009001F0F7FC30B90B4940F2923201F1C3
:102480001800FDF799FFF06800680028D3D1D6E95D
:102490000310C6E90301012038604046C6F80880F1
:1024A000BDE8F8836C000220482700080A4840680D
:1024B000B0F1FF3F05D009A140F2091213A0FDF7CA
:1024C0007BFF502072B680F31188BFF34F8FBFF3AC
:1024D0006F8F62B6FEE70000800002202E2E5C4661
:1024E00072656552544F535C706F727461626C65B3
:1024F0005C525644535C41524D5F434D375C7230E1
:1025000070315C706F72742E630000004572726FE0
:10251000723A25732C25640D0A00000086B0DFF89E
:1025200020B24FF0805A874F4FF00009F8680168D9
:1025300000290CBF01260026002E06BFC0680568D2
:10254000002500F0DFFD01A8FFF762FF04460198B7
:10255000002833D001F0A4FB0023386802A91A46F2
:1025600000F0D4FE0028E1D00298002807DA039A90
:10257000DDE90401904702980028C0F2D680049D4E
:10258000686900281CBF281D00F06AFA01F056FA9D
:102590008046B868804573D2F868006800286BD020
:1025A000F868C068C4680668201D00F059FA616ABE
:1025B00020468847E069012840D059E0AEB138692B
:1025C000006800280CBF01260026291B3868324607
:1025D00000F0B2FB01F064FB0028BDD1CBF800A0F5
:1025E000BFF34F8FBFF36F8FB6E7A542EDD801F071
:1025F00057FBF8682646C068C468201D00F030FA12
:10260000E069012816D1A0692B46324641192046BF
:10261000FFF794FE70B100232A4619462046CDF8F4
:10262000009001F01FFC28B94FF4027246A14CA0A3
:10263000FDF7C2FE616A204688478DE7A0693044F5
:10264000B04206D92461211D6060F86800F028FAC4
:102650000EE00023324619462046CDF8009001F0E6
:1026600001FC28B938A140F292323DA0FDF7A4FE4A
:10267000F8680068002893D1D7E90310C7E903017F
:10268000C7F8088002980A284FD2DFE800F0050555
:10269000054E334B05054E330398A9690844039949
:1026A0002D614045686005D8A869A8EB0101814209
:1026B00004D231E0414532D9814230D8696A284696
:1026C0008847E869012830D102E000F0E9F92CE000
:1026D000CDF8009000230398A969421819462846AE
:1026E00001F0C0FB08BB18A140F221321CA0FDF78D
:1026F00063FE1AE00398A86128B94FF44E7212A144
:1027000017A0FDF759FEA8692D6140446860804517
:1027100005D3A869002808D93869291DD5E7F868C4
:10272000291DD2E7284600F05BFA0023386802A989
:102730001A4600F0EBFD00287FF416AFF6E6000025
:1027400004ED00E06C0002202E2E5C46726565529E
:10275000544F535C74696D6572732E630000000002
:102760004572726F723A25732C25640D0A000000C1
:1027700070B5044600F0BEF994F94550002D14DD03
:10278000A06C28B100212046FFF7F8FD48B106E013
:10279000606A50B104F1240001F038FA08B100F089
:1027A000A3FB681E45B2002DEADC4FF0FF3684F82B
:1027B000456000F0DFF900F09DF994F94450002DD8
:1027C0000DDD206958B104F1100001F01FFA002856
:1027D00018BF00F089FB681E45B2002DF1DC84F8BB
:1027E0004460BDE8704000F0C5B900002DE9F04735
:1027F0000026054600F086FC434FB04607F1100462
:102800003868002818BFF8681FD140494FF480305D
:1028100011F0070F06D0C81D20F007013B48081A29
:10282000C0F580300844083820F00700C4E90018DB
:10283000421A3860C0F80480C0F80080C1E9000284
:10284000BA604FF000407A60F86005424DD1002D2B
:102850004BD0083515F0070F0CD005F00700C0F17C
:102860000800054415F0070F04D0BF2228A132A0AC
:10287000FDF7A2FD002D38D0786885429CBF324814
:10288000246832D86168A94205D2216800291CBF9A
:1028900020460C46F6D139688C4226D0016801F1F9
:1028A0000806216801606068401B102811D904EBFC
:1028B000050919F0070F04D0EC2215A11EA0FDF7A1
:1028C0007BFD6068401BC9F8040048466560FFF75F
:1028D00003FD61687868401A7860BA68824288BFF0
:1028E000B860F8680843C4E9008001F0D9F916F02F
:1028F000070F05D04FF4967205A10FA0FDF75CFD00
:102900003046BDE8F08700008C0002202805022038
:102910002E2E5C4672656552544F535C706F727414
:1029200061626C655C4D656D4D616E675C6865618B
:10293000705F342E630000004572726F723A257327
:102940002C25640D0A0000009C0002200449086840
:1029500018B10868026D521C0265086870470000D3
:10296000300002204FF0807C40F804CC074B21F06F
:10297000010140F8081C40F80C3C40F8202C6FF096
:10298000020240F8242C443870470000AD240008AF
:102990004DF804ED83B000F0ADF813490220002398
:1029A0003222CDE90001144810A100F075FF13494F
:1029B000032000233222CDE90001144810A100F0C9
:1029C0006BFF1349042000238022CDE90001144845
:1029D00010A100F061FF1348006800F00BFA03B08B
:1029E0005DF804EB00F0C6B8040002206C656430AA
:1029F0005F7461736B0000009520000808000220DE
:102A00006C6564315F7461736B000000E92000083D
:102A10000C000220666C6F61745F7461736B000060
:102A200051200008000002200B490A4A10B5C1E9F4
:102A3000002000208860C860086188610C2048611F
:102A40000846FEF741FEBDE8104004490122024855
:102A5000FEF7B4BE001001406C01022024000220E9
:102A6000D0E9013201699A60D0E901235A604A68CD
:102A7000824204BF82684A60002202610868401EE8
:102A8000086070474FF0FF3200F10801C0E9011201
:102A9000C160016100210160704700210161704740
:102AA0004DF8044DD1F800C0BCF1FF3F0CBF0269E6
:102AB00000F1080205D053681C68644598BF1A46A7
:102AC000F9D953684B6099608A6051600861016868
:102AD000491C01605DF8044B704742684A60936886
:102AE0008B6093685960916008610168491C0160BE
:102AF00070470000502072B680F31188BFF34F8FEB
:102B0000BFF36F8F094962B64868401C48600128CE
:102B100018BF70470648006810F0FF0F08BF7047E5
:102B200040F2A91203A10FA0FDF746BC80000220CD
:102B300004ED00E02E2E5C4672656552544F535CE6
:102B4000706F727461626C655C525644535C4152A2
:102B50004D5F434D375C723070315C706F72742E14
:102B6000630000004572726F723A25732C25640D64
:102B70000A00000010B5094C606828B94FF4D872FB
:102B800007A113A0FDF718FC6068401E606018BF25
:102B900010BD002080F3118810BD000080000220CD
:102BA0002E2E5C4672656552544F535C706F727482
:102BB00061626C655C525644535C41524D5F434DBB
:102BC000375C723070315C706F72742E630000007D
:102BD0004572726F723A25732C25640D0A0000004D
:102BE000002808BF704770B5164DA0F1080450F8D2
:102BF000040CE968084205D14FF4A07212A11CA090
:102C0000FDF7DAFB206828B10FA140F2411218A0AD
:102C1000FDF7D2FB6068E968084208BF70BD226812
:102C2000002A18BF70BD8843606000F06BFA6068CE
:102C30006968084468602046FFF74EFBBDE87040B5
:102C400001F02EB88C0002202E2E5C467265655273
:102C5000544F535C706F727461626C655C4D656D4E
:102C60004D616E675C686561705F342E63000000C3
:102C70004572726F723A25732C25640D0A000000AC
:102C800010B5FDF773FB104C10280CD300F1E020B9
:102C900090F8F0032178814205D90CA140F2F2228C
:102CA00016A0FDF789FB19480068A16800F4E060F0
:102CB000884298BF10BD40F2023204A1BDE8104026
:102CC0000EA0FDF779BB0000800002202E2E5C468E
:102CD00072656552544F535C706F727461626C65BB
:102CE0005C525644535C41524D5F434D375C7230E9
:102CF00070315C706F72742E630000004572726FE9
:102D0000723A25732C25640D0A0000000CED00E0DA
:102D1000084B002253F832C0BCF1000F03D0521C04
:102D2000082AF7D3704743F8321003EBC20148601A
:102D300070470000DC01022070B515460E460446BF
:102D4000FFF7D8FE94F94400B0F1FF3F4FF00000C8
:102D500008BF84F8440094F94510B1F1FF3F08BF63
:102D600084F84500FFF706FFA06B28B904F12400A2
:102D70002A46314600F0EAF82046BDE87040FFF7E9
:102D8000F7BC000070B5050014D00F4C216B29B1C1
:102D90000EA140F2CF4212A0FDF70EFB216B491CA1
:102DA000216300212846FFF7E7F900F079FF0028AA
:102DB00018BF70BD4FF080500D490860BFF34F8FB2
:102DC000BFF36F8F70BD0000300002202E2E5C46D6
:102DD00072656552544F535C7461736B732E63005C
:102DE0004572726F723A25732C25640D0A0000003B
:102DF00004ED00E070B50446FFF77CFE2D4D002C7D
:102E000008BF2C68201DFFF72BFE68B9E06A2A492D
:102E100000EB800251F8221031B9012101FA00F0D3
:102E2000296921EA00002861A06A00281CBF04F17A
:102E30001800FFF715FE686A401C68622868844223
:102E400007D11E48211DFFF748FE6868401C6860D6
:102E500014E0A868401EA860206BFFF7C1FE204662
:102E6000FFF7BEFE686B006800280FBF4FF0FF3011
:102E7000686BC068C06818BF4068A862FFF77AFE38
:102E80006869002808BF70BD2868844218BF70BDFB
:102E9000286B28B10AA140F265420EA0FDF78CFA1A
:102EA00010494FF080500860BFF34F8FBFF36F8F12
:102EB00070BD0000300002201C020220D804022055
:102EC0002E2E5C4672656552544F535C7461736B71
:102ED000732E63004572726F723A25732C25640D50
:102EE0000A00000004ED00E001490120C8617047BC
:102EF0003000022070B504000D4605D109A140F64E
:102F000006320DA0FDF758FA0F48006800F11801CD
:102F10002046FFF7C5FD2846BDE870400121FFF7B8
:102F20002BB900002E2E5C4672656552544F535CDF
:102F30007461736B732E63004572726F723A2573FE
:102F40002C25640D0A0000003000022070B5060038
:102F500014460D4605D10BA140F631320EA0FDF707
:102F60002BFA1148006800F118013046FFF7B5FD53
:102F7000002C18BF4FF0FF3521462846BDE87040B1
:102F8000FFF7FAB82E2E5C4672656552544F535CBB
:102F90007461736B732E63004572726F723A25739E
:102FA0002C25640D0A0000003000022070B50400DA
:102FB00008BF70BD1E4DE06A2968C96A814298BF8A
:102FC00070BDA06910F0004F04D12868C06AC0F13C
:102FD0002000A061E06A174E616900EB800006EBFB
:102FE0008000814220D1201DFFF73AFD012158B910
:102FF000E06A00EB800256F822202AB92A6901FA19
:1030000000F022EA000028612868C06AE0622A69AC
:1030100081401143296100EB8000211D06EB8000F7
:10302000BDE87040FFF759BD2868C06AE06270BD16
:10303000300002201C02022010B5040006D106490F
:1030400040F6C13201F11400FDF7B6F90348016AF8
:103050002160C068606010BD1C20000830000220A4
:1030600010B51A4882B000248222234618A1CDE967
:103070000040194800F010FC012803D100F094FE34
:1030800001280DD0B0F1FF3F1CBF02B010BD40F2CF
:10309000847202B011A116A0BDE81040FDF78CB9F2
:1030A000502072B680F31188BFF34F8FBFF36F8F3C
:1030B00062B613484FF0FF31816201214161C46063
:1030C00002B0BDE8104000F055B800005C000220DE
:1030D00049444C45000000005D2200082E2E5C464D
:1030E00072656552544F535C7461736B732E630049
:1030F0004572726F723A25732C25640D0A00000028
:10310000300002200248016B491C01637047000037
:103110003000022070B5144D286B00281EBF01201E
:10312000E86170BD0020E8612869104EB0FA80F0B7
:10313000C0F11F0000EB800456F8240030B90C49A0
:1031400040F6F62201F11400FDF736F906EB840093
:1031500000F10802416849684160914204BF496832
:103160004160C868286070BD300002201C02022047
:103170001C20000810B52D4C82B020780190FF2053
:10318000207020788DF800009DF800009DF8001058
:1031900000F0F000884205D025A140F2631230A073
:1031A000FDF70AF99DF80000072200F050013048B1
:1031B000017082609DF8001011F0800F0CD08168C2
:1031C000491E81609DF8001049008DF800109DF89F
:1031D000001011F0800FF2D1017A090201F4E061D0
:1031E00081600199217023490B6843F470030B60DF
:1031F0000B6843F070430B601F494FF47A73096802
:10320000B1FBF3F14B1E4FF0E0214B610A6100214D
:103210004160FDF771F81948016841F040410160D3
:10322000FDF75AF802B0002010BD000000E400E0F5
:103230002E2E5C4672656552544F535C706F7274EB
:1032400061626C655C525644535C41524D5F434D24
:10325000375C723070315C706F72742E63000000E6
:103260004572726F723A25732C25640D0A000000B6
:103270008000022020ED00E01800022034EF00E082
:10328000502010B572B680F31188BFF34F8FBFF393
:103290006F8F62B600F0D8FB18B104494FF0805030
:1032A0000860002080F3118810BD000004ED00E0EC
:1032B0002DE9F041060017460D4606D112494FF49C
:1032C000C47201F11400FDF777F8002D0CBF002047
:1032D00006FB05F05430FFF789FA040008BFBDE88B
:1032E000F08104F15400002D0CBF246020602046C2
:1032F0000121C4E90F6500F0EBF884F8507000215B
:103300002046A164BDE8F081503500082DE9FF4F4B
:1033100004009B4683B00F464FF0000605D162A122
:1033200040F2DC4265A0FDF747F83FB9206C28B1B8
:103330005DA140F2DD4261A0FDF73EF800F070FBB8
:1033400038B9059828B14FF49C6257A15BA0FDF7EE
:1033500033F8DFF878914FF080584FF0000AFFF70C
:10336000C9FBA56B002D35D0E668226C52B1B018B0
:10337000E0606168884224BF2068E060014638460A
:10338000FDF726F9BBF1000F13D0E660606A50B17B
:1033900004F1240000F03AFC28B1C9F80080BFF322
:1033A0004F8FBFF36F8FFFF7E5FB07B00120BDE83C
:1033B000F08F681EA063206810B9FFF7C7FA60603D
:1033C00020690028EFD004F1100000F01FFC002855
:1033D000E9D0E2E7059808B136B109E0FFF7CAFB8A
:1033E00007B00020BDE8F08F6846FFF725FE0126F4
:1033F000FFF7C0FBFFF786FEFFF77CFB94F9440064
:10340000B0F1FF3F08BF84F844A094F94500B0F143
:10341000FF3F08BF84F845A0FFF7ACFB05A968464D
:1034200000F0E8F998B12046FFF7A2F900F038FC67
:10343000FFF760FBA06B00280CBF01250025FFF7FC
:1034400099FB002D8BD007B00020BDE8F08FFFF76F
:1034500051FBA06B002814BF00250125FFF78AFB54
:10346000E5B1206830B9FFF745FB6068FFF79EFDC6
:10347000FFF780FB059904F12400FFF73BFD204690
:10348000FFF776F900F00CFC00287FF468AFC9F86C
:103490000080BFF34F8FBFF36F8F60E72046FFF7C9
:1034A00067F900F0FDFB5AE72E2E5C467265655207
:1034B000544F535C71756575652E63004572726F6C
:1034C000723A25732C25640D0A00000004ED00E01B
:1034D00070B504000D4605D11DA140F21B1221A0BC
:1034E000FCF76AFFFFF706FBD4E90F12206801FB27
:1034F000020060600020A063491E2068A06001FBFC
:103500000200E0604FF0FF3084F8440084F845008A
:103510005DB104F11000FFF7B5FA04F12400FFF7E4
:10352000B1FAFFF727FB012070BD20690028F8D011
:1035300004F1100000F06AFB0028F2D00D494FF0B2
:1035400080500860BFF34F8FBFF36F8FE9E7000033
:103550002E2E5C4672656552544F535C71756575CD
:10356000652E63004572726F723A25732C25640DC7
:103570000A00000004ED00E02DE9FF4F040098462A
:1035800083B08B464FF0000605D155A140F2D922F9
:1035900058A0FCF711FFBBF1000F07D1206C28B138
:1035A0004FA140F2DA2253A0FCF706FFB8F1020F58
:1035B00008D1E06B012805D049A140F2DB224DA0E3
:1035C000FCF7FAFE00F02CFA38B9059828B144A1AE
:1035D00040F2DE2247A0FCF7EFFEDFF828A100272B
:1035E0004FF08059FFF786FAA06BE16B884206D353
:1035F000B8F1020F03D0059818B32EB328E0424665
:1036000059462046FEF7F2FDA16C29B141462046FD
:10361000FEF7B4FE78B108E0616A29B104F1240034
:1036200000F0F4FA38B100E028B1CAF80090BFF316
:103630004F8FBFF36F8FFFF79DFA07B00120BDE8F2
:10364000F08FFFF797FA23E06846FFF7F5FC0126B5
:10365000FFF790FAFFF756FDFFF74CFA94F9440094
:10366000B0F1FF3F08BF84F8447094F94500B0F111
:10367000FF3F08BF84F84570FFF77CFA05A968464C
:1036800000F0B8F840B12046FFF772F800F008FBF0
:1036900007B00020BDE8F08FFFF72CFAA06BE16BBC
:1036A000884214BF00250125FFF764FA95B10599FA
:1036B00004F11000FFF71EFC2046FFF759F800F058
:1036C000EFFA00288ED1CAF80090BFF34F8FBFF3F6
:1036D0006F8F87E72046FFF74BF800F0E1FA81E7AC
:1036E0002E2E5C4672656552544F535C717565753C
:1036F000652E63004572726F723A25732C25640D36
:103700000A00000004ED00E02DE9F04704001F4628
:103710001546894605D12EA140F29F3231A0FCF713
:103720004BFEB9F1000F07D1206C28B14FF468723D
:1037300027A12CA0FCF740FE022F08D1E06B012846
:1037400005D023A140F2A13226A0FCF735FEFFF7F9
:1037500097FA5020EFF3118872B680F31188BFF307
:103760004F8FBFF36F8F62B6A06BE16B884207D3B8
:10377000022F18BF002003D088F31188BDE8F0871E
:1037800094F945603A4649462046FEF72FFD701CE5
:1037900018BF84F8450001D00120EDE7A06C012698
:1037A00048B139462046FEF7E9FD002818BF002D34
:1037B000F2D02E60F0E7606A0028EDD004F124001A
:1037C00000F024FA002818BF002DE5D0F1E7000032
:1037D0002E2E5C4672656552544F535C717565754B
:1037E000652E63004572726F723A25732C25640D45
:1037F0000A00000070B504000D4605D11BA140F67B
:10380000CB321FA0FCF7D8FD2DB918A140F6CC3261
:103810001BA0FCF7D1FDFFF76DF91D4EF16828687C
:10382000B0F1FF3F08BF00241BD02268336A9A42E0
:1038300002D062688A4213D96268891A88420FD915
:10384000401A286034B9134940F6C13201F114001E
:10385000FCF7B2FD306A2060F0686060002400E090
:103860000124FFF787F9204670BD00002E2E5C462C
:1038700072656552544F535C7461736B732E6300B1
:103880004572726F723A25732C25640D0A00000090
:10389000300002201C2000082DE9F84F81469A468E
:1038A00090009046DDE90A570E460090FEF79EFF15
:1038B0005FEA000B51D05C20FEF798FF040049D06E
:1038C000C4F830B0A52200995846FCF7C6FE206B1C
:1038D0006FF0030101EB88014FF0000B084420F06A
:1038E000070858462118325C81F83420315C0029E1
:1038F0001CBF401C1028F5D3202D84F843B028BFEE
:103900001F25201DE562C4E9135BFFF7C6F804F12B
:103910001800FFF7C2F82461C5F120016462A161BB
:10392000C4F854B084F858B0524649464046FFF7B0
:1039300019F8002F206018BF3C602546FFF7DAF821
:103940002F4EB068401CB06030682E4F48B170698F
:1039500050B32FE05846FFF743F94FF0FF30BDE872
:10396000F88F3560B068012808BF002422D104EB2D
:10397000840007EB8000FFF785F8641C202CF6D349
:103980002148FFF77FF82148FFF77CF82048FFF730
:1039900079F82048FFF776F81F48FFF773F81A48C0
:1039A00070631430B06305E03068E96AC06A884229
:1039B00098BF3560706A0121401C70626864E86AD3
:1039C000326981401143316100EB8000291D07EB12
:1039D0008000FFF782F8FFF7CDF8706960B13068BA
:1039E000E96AC06A884207D20C494FF080500860EB
:1039F000BFF34F8FBFF36F8F0120BDE8F88F00003A
:103A0000300002201C0202209C040220B00402208C
:103A1000C4040220D8040220EC04022004ED00E0DB
:103A200005484169002904BF01207047006B002848
:103A30000CBF022000207047300002200148C068FF
:103A400070470000300002202DE9F047364F002675
:103A5000386B48B1B869401CB861F869002818BFD4
:103A600001263046BDE8F087F868451CFD604FF040
:103A7000FF391BD1786B006828B12CA140F6D91210
:103A80002FA0FCF799FC786BB96B7963B863386A3F
:103A9000401C3862786B0068002808BFC7F828907F
:103AA00004D0786BC068C0684068B862B86ADFF854
:103AB000A080A84298BF4FF0010A0CD8786B00682C
:103AC00038B1786BC068C468606885420DD2B8624E
:103AD00001E0C7F828903868C06A00EB800058F809
:103AE0002000012888BF0126B7E7201DFEF7B8FF98
:103AF000A06A00281CBF04F11800FEF7B1FFE06ABD
:103B00003A690AFA00F11143396100EB8000211D86
:103B100008EB8000FEF7E1FFE06A3968C96A884275
:103B200028BF0126CAE70000300002202E2E5C4686
:103B300072656552544F535C7461736B732E6300EE
:103B40004572726F723A25732C25640D0A000000CD
:103B50001C02022070B504004FF000053DD0204E3D
:103B60003068844205D01FA140F6C76222A0FCF74E
:103B700023FC206D28B91BA140F6C9621EA0FCF7EA
:103B80001BFC206D401E2065E26CE16A914224D04E
:103B900018BB201DFEF764FF1B49012258B9E06ADB
:103BA00000EB800351F823302BB9336902FA00F09F
:103BB00023EA00003061E06CE062C0F12000A06107
:103BC000E06A336982401A43326100EB800001EB06
:103BD0008000211DFEF781FF0125284670BD0000F1
:103BE000300002202E2E5C4672656552544F535CA5
:103BF0007461736B732E63004572726F723A257332
:103C00002C25640D0A0000001C02022070B5C0685B
:103C1000C4682CB916A140F661321AA0FCF7CCFB9F
:103C200004F11800FEF71CFF1A4D286B012600282E
:103C30001CBF04F1180118480AD0FEF74EFFE06AD5
:103C40002968C96A884286BF0120EE61002070BDE4
:103C5000201DFEF705FFE06A2A6906FA00F111430C
:103C600029610E4900EB800001EB8000211DE4E793
:103C70002E2E5C4672656552544F535C7461736BB3
:103C8000732E63004572726F723A25732C25640D92
:103C90000A00000030000220C40402201C0202209E
:103CA0002DE9F047334D4FF00008286B28B932A1B9
:103CB0004FF4FD6235A0FCF77FFBFEF71BFF286B7E
:103CC000401E2863286B00284ED1A86800284BD0DE
:103CD000324F01263868002818BFDFF8C4902CD076
:103CE000F868C46804F11800FEF7BAFE201DFEF75C
:103CF000B7FEE06A2A6906FA00F11143296100EB78
:103D00008000211D09EB8000FEF7E7FEE06A2968CC
:103D1000C96A884228BFEE6138680028E0D164B1E2
:103D2000686B2946006800280FBF4FF0FF30486BD2
:103D3000C068C06818BF40688862AC6944B1FFF7CA
:103D400083FE002818BFEE61641EF8D10020A86130
:103D5000E86948B113494FF080504FF001080860FE
:103D6000BFF34F8FBFF36F8FFEF704FF4046BDE8F0
:103D7000F0870000300002202E2E5C4672656552EE
:103D8000544F535C7461736B732E63004572726F92
:103D9000723A25732C25640D0A000000C404022029
:103DA0001C02022004ED00E030B5002483B0FEF7D1
:103DB000A1FE194D2868A0B91848FEF763FE1848FF
:103DC000FEF760FE15480022E860102114302861DB
:103DD0000520FFF76DFA002828601CBF11A1FEF72F
:103DE00097FFFEF7C7FE286860B110491F20002327
:103DF0004FF48272CDE900010F480DA1FFF74CFD91
:103E0000040005D10DA140F2331212A0FCF7D4FA40
:103E100003B0204630BD00006C00022000050220E7
:103E200014050220546D7251000000007000022041
:103E3000546D7220537663001D2500082E2E5C46BB
:103E400072656552544F535C74696D6572732E636D
:103E5000000000004572726F723A25732C25640DC4
:103E60000A0000002DE9F04784B09A460500174685
:103E70000C464FF00008DDF8309005D115A14FF445
:103E8000D3721AA0FCF798FA1C4E3068B8B1062C11
:103E90000295CDE9004716DAFFF7C2FD02284FF080
:103EA000000306D0306800226946FFF765FB8046B4
:103EB00005E030684A466946FFF75EFB804604B07D
:103EC0004046BDE8F087002352466946FFF71CFCD8
:103ED000EDE700002E2E5C4672656552544F535C30
:103EE00074696D6572732E63000000004572726F15
:103EF000723A25732C25640D0A0000006C00022024
:103F00004FF04070E1EE100A704700000000000022
:103F10000000010203040607080900000000010276
:103F200003040000443F000800000220A400000039
:103F300034020008E83F0008A4000220E424010045
:103F40005002000800000000000000000000000017
:103F50000000000000000000000000000024F40049
:103F60000000000000000000000000000000000051
:103F70000000000000000000000000000000000041
:103F80000000000000000000000000000000000031
:103F90000000000000000000000000000000000021
:103FA0000000000000000000000000000000000011
:103FB0000000000000000000000000000000000001
:103FC0000000000000000000AAAAAAAA0000000049
:103FD00000000000000000000000000000000000E1
:083FE0000000000000000000D9
:04000005080001F9F5
:00000001FF
